{
  "_format": "hh-sol-artifact-1",
  "contractName": "NUM2",
  "sourceName": "contracts/NUM2.sol",
  "abi": [
    {
      "inputs": [],
      "name": "get",
      "outputs": [
        {
          "internalType": "uint256",
          "name": "",
          "type": "uint256"
        }
      ],
      "stateMutability": "view",
      "type": "function"
    },
    {
      "inputs": [],
      "name": "increment",
      "outputs": [],
      "stateMutability": "nonpayable",
      "type": "function"
    },
    {
      "inputs": [
        {
          "internalType": "uint256",
          "name": "_num",
          "type": "uint256"
        }
      ],
      "name": "update",
      "outputs": [],
      "stateMutability": "nonpayable",
      "type": "function"
    }
  ],
  "bytecode": "0x608060405234801561001057600080fd5b506101df806100206000396000f3fe608060405234801561001057600080fd5b50600436106100415760003560e01c80636d4ce63c1461004657806382ab890a14610064578063d09de08a14610080575b600080fd5b61004e61008a565b60405161005b91906100cd565b60405180910390f35b61007e60048036038101906100799190610119565b610093565b005b61008861009d565b005b60008054905090565b8060008190555050565b60016000546100ac9190610175565b600081905550565b6000819050919050565b6100c7816100b4565b82525050565b60006020820190506100e260008301846100be565b92915050565b600080fd5b6100f6816100b4565b811461010157600080fd5b50565b600081359050610113816100ed565b92915050565b60006020828403121561012f5761012e6100e8565b5b600061013d84828501610104565b91505092915050565b7f4e487b7100000000000000000000000000000000000000000000000000000000600052601160045260246000fd5b6000610180826100b4565b915061018b836100b4565b92508282019050808211156101a3576101a2610146565b5b9291505056fea264697066735822122019a001a19d60c99933f18f2025fb9479f7de450cae256bc2deed110f4f466f5364736f6c63430008130033",
  "linkReferences": {},
  "deployedLinkReferences": {}
}